:020000040800F2
:1000000050050020052F000861260008632600081F
:100010006526000867260008692600080000000021
:100020000000000000000000000000006B26000837
:100030006D260008000000006F26000871260008E9
:10004000392F00083D2F0008412F0008452F0008D8
:10005000492F00084D2F0008512F0008552F000888
:10006000592F00085D2F0008612F0008652F000838
:10007000692F00086D2F0008712F0008752F0008E8
:10008000792F00087D2F0008812F0008852F000898
:10009000892F00088D2F0008912F0008952F000848
:1000A000992F00089D2F0008A12F0008A52F0008F8
:1000B00075260008A92F0008AD2F000801270008A9
:1000C00007270008B12F0008B52F0008B92F000836
:1000D000BD2F0008C12F0008C52F0008C92F000838
:1000E0000D270008CD2F0008D12F0008F8B5040017
:1000F00025D004F13C05697821B9002028702046FC
:1001000000F077FF242169702068026852085200CD
:1001100002602068016841F40041016020680268C3
:1001200022F40042026001F0EEF901466068DFF857
:100130009021904205D2DFF88C31994205D20120FE
:10014000F2BDDFF884018142F9D32068DFF87C3109
:100150004668B1FBF3F3B60943EA861646602668A3
:10016000376A6068904206D34FF4967043434FF469
:100170007A70B3FBF0F35B1CBF0943EA8713336269
:10018000491E2368DE696768974206D27F0000F047
:1001900043F8042913D2042111E0A06820B907EB29
:1001A000470700F039F805E01920474300F034F81C
:1001B00041F4804108050CBF012141F40041DFF802
:1001C000100106400E43DE6122681368E169206A6F
:1001D00023F0C0030B43034313602268DFF8F400ED
:1001E000936821690340E0680B43034393602168EF
:1001F000CA68A3696069120A034343EA0222CA601B
:100200002068016841F00101016000206860202140
:1002100069702063A870F2BDB1FBF7F1491CC1F30E
:100220000B017047006841690A0644BF0021016163
:100230007047009021684A6900928969009100988E
:10024000704770B500F13C035C78202C0BD109B1EC
:10025000140001D1012070BD1C78012C03D000F0E6
:1002600004F8222411E0022070BD01251D700468ED
:100270002668F50703D4266846F001062660046860
:10028000256825F40065256070475C7020259D7009
:1002900000245C6041624285418DDFF86820018561
:1002A000C26201680C6844F480640C60002119701B
:1002B0000068426842F4E0624260002070BD0000C5
:1002C000A186010080841E0000093D0040420F000D
:1002D0000030FFFF007CFFFF0098401E0090009858
:1002E00070470069616A0870606A421C6262608DD2
:1002F000411E6185704720680169606A0170616A0A
:100300004A1C70470000FFFF016821F48061016012
:1003100070473068016841F480710160704741683E
:1003200041F4805141607047F8B500F021F80BD1DD
:1003300009B1150001D10120F2BD2578012D03D0AE
:1003400000F01DF829252AE00220F2BDF8B500F0E2
:100350000FF80BD109B1150001D10120F2BD2578AC
:10036000012D03D000F00BF82A2518E00220F2BD81
:1003700000F13C04657805F02805282D704701261A
:10038000267005682F68FE0703D42F6847F0010721
:100390002F6005682E6826F400662E607047657031
:1003A0002026A6700025656041624285418D018549
:1003B000C362009501684A6900928B6900930098B6
:1003C000257000204B6843F4E0634B60F2BD90F869
:1003D0003D10202916D1282280F83D2001680B68A5
:1003E000DA0703D40B6843F001030B6001680A6865
:1003F00042F480620A600068416841F440714160E3
:1004000000207047022070472DE9FC41044604F1AA
:100410003C052268DFF8C08A5168D4F82CE0A8783F
:100420006B780027102818BF402840F05D8297693C
:10043000D2F814C05FEACC7605D4BEF52A0F18BFF7
:10044000BEF12A4F47D05FEACC7645D58E0543D51D
:10045000E06AB0F52A0F08BF012104D0E06AB0F1CC
:100460002A4F01D10821E162A878402809D16869A2
:100470000028A8681ABF40F00100C0B200F0FE00DA
:1004800028E02069B0F5804F16D168782128A86847
:100490000EBF00F0FE0040F00100C0B21061606BC2
:1004A00000281CBF806A00282AD1A06B00281CBF2E
:1004B000806A00280FD023E0686920B900F014FB9F
:1004C00040F0F00006E06869012804D100F00CFB60
:1004D00040F0F100106105E35FEA0C7615D58E055A
:1004E00013D5A868C0B21061606B00281CBF806A79
:1004F000002805D1A06B00281CBF806A0028EAD024
:100500002068416841F400613AE15FEA8C7600D5E9
:100510008E0540F1B880AB78E16A276B68782228B5
:1005200040F0A9806869002808BF402B04D1002151
:1005300000F0F5FA009AD5E26869002804BF206946
:10054000B0F5404F08D100F0F0FA41F4807111602D
:100550006869401C6861C5E2608D28B900F0E5FA61
:1005600041F40071116083E0608D01283CD1414568
:1005700015D1116821F48061116021684868020575
:1005800006D5086820F480600860002100916DE0C5
:10059000002200924B6900938A6900920FE00829BB
:1005A00018BF202903D0122F0FD1012912D01068B3
:1005B00020F4806010600021009100F0CCFA0098D7
:1005C0000A6842F400720A6052E004291CBF022942
:1005D000102904D0106820F48060106044E0116895
:1005E00041F4806111603FE0638D022B29D1042921
:1005F0001CBF022910290CD0106840F4006000F0E4
:100600009DFA976900970098136823F4806313603C
:1006100007E0106840F4806000F090FA9269009260
:10062000009820684268130522D5414518BF01296A
:1006300004D008291CBF1029202919D1FFF76FFE0B
:1006400016E0106840F4806010602068426813056E
:100650000AD5414518BF012904D008291CBF10291B
:10066000202901D1FFF75BFE00200090FFF7E2FD9B
:100670000021696136E2002300935169009192697B
:10068000009200992EE27F075ED556683705F9D4AF
:100690005FEA0C662DD54F052BD55FEA4C7628D442
:1006A0006978AB78E76A208D002808BF212913D12B
:1006B000082F1CBF202F474504D000F020FA00224D
:1006C000AA702EE000F06DFA31D10021A970204609
:1006D000BDE8F64100F043BF212903D0402B08BFFD
:1006E0002229CFD1608D00284ED0A878402827D06D
:1006F000C4E15FEA4C77C5D58905C3D5212B1DD14F
:10070000E16A687821283CD1608D08B100F0B6B963
:1007100008291CBF2029414506D000F0F0F900202F
:10072000A8702021697004E000F03BFACDD00021D0
:10073000A9702046BDE8F64100F012BF402820D144
:100740002046BDE8F641D2E25068030519D45FEABD
:100750004C6073D54B0571D55FEA4C706ED46978E7
:1007600022290ED1E36A608D04280BD31069FFF7AC
:10077000B9FD608D032804D12068416821F48061AF
:100780004160AFE1E16A022955D0012818BF002875
:1007900051D10020DFF81C18009019200968B1FB26
:1007A000F0F04FF47A77B0FBF7F707EB8707009785
:1007B0002146FFF791FDD8B11468A005F9D40C4685
:1007C000116821F48061116000F071FBFFF793FD67
:1007D00062622022FFF78BFD6A70A878402822D140
:1007E0000021A97021632046BDE8F64100F0B9BEA2
:1007F000686840F020006860506820F4E060506055
:100800000A6810694A6A1070486A431C4B622023C8
:10081000488D421E4A856B700020A8700846BDE8CE
:10082000F64100F001BF0020082B18BF202BA87054
:1008300053D0122052E000F05DF953E15FEA4C70B2
:10084000FBD58905F9D5E06A618D042904D100F052
:1008500051F9216808693EE1618D03290CD1516885
:10086000042821F4806118BF0228516001D000F0F3
:100870008CF9FFF740FD32E1618D022940F02A81B9
:10088000012818BF10280CD0042818BF022803D054
:10089000116841F4007107E0136843F4806313604A
:1008A00003E0116821F4806111602268116900F091
:1008B0002DF92368196900F029F921684A6822F4A2
:1008C00040724A6020216970AA78402A88D00021AD
:1008D000082818BF2028A970ABD10020206320462B
:1008E000BDE8F64101F04DB8686800B997695069F4
:1008F000860722D58E0520D5686800B1976968788B
:10090000002100F02800282811D100F0F3F8780722
:1009100058BF0121380654BFE268A2690020287040
:1009200002B02046BDE8F04192B200F01DBE00F0DA
:10093000F6F80021009A2970D4E0C70673D58E0519
:1009400071D56F78506820F4E0605060002100910C
:10095000206841690091026842F00102026000983B
:1009600000F013F921684868020526D5222F18BF28
:100970002A2F0FF275560FD0606B00F0F2F8606B03
:1009800001F05EF8012818D0606B4663606B00F0E0
:10099000F9FF90B1606B0EE0A06B00F0E2F8A06B85
:1009A00001F04EF8012808D0A06B4663A06B00F060
:1009B000E9FF10B1A06B416B8847608D88B120685A
:1009C00041694A0701D5FFF78CFC206841694A0656
:1009D00001D5FFF786FC608D18B1686840F004000F
:1009E0006860686818B12046BDE8F641D9E12A2F51
:1009F00005D1206328216970204600F014FE687834
:100A0000282808D1C4F82C8000F0C5F82046BDE89D
:100A1000F64100F0A7BD206B222818BF222F61D11C
:100A200000F0B9F84BE0212B18BF292B2DD103067C
:100A30001DD54B051BD5430719D46978608D002857
:100A400050D0606A03781361606A421C626200F0F1
:100A50007CF808BF292945D100F091F821202063B6
:100A6000282169702046BDE8F64100F0ECBF400740
:100A700038D5890536D5608D002833D0606A017875
:100A80001161606A411C61622AE043061CD54B0576
:100A90001AD5430718D46978608D18B31069626A53
:100AA0001070606A431C636200F04FF808BF2A2987
:100AB00018D100F064F822202063282169702046B4
:100AC000BDE8F64100F0AFBD40070BD5890509D55B
:100AD000608D38B11069616A0870606A421C626298
:100AE000FFF705FCBDE8F381A8680004C00D00F025
:100AF00006007047506820F480605060704750686E
:100B000020F4E0605060112121637047626A117027
:100B1000616A4B1C6362618D4A1E62857047009159
:100B200053690093916900917047002100915369C6
:100B3000009391690091009811687047106000223D
:100B400000922268536900937047608D421E62854F
:100B5000608D0028704721684A6900928B69009374
:100B60007047026853686385608D18B1686840F00B
:100B700004006860486820F400604860704720689E
:100B8000416821F48061416070472068016821F468
:100B90008061016070470020206320216970A87087
:100BA0007047506820F4E06050602068016841F4AC
:100BB000007101600020206320216970A87840281E
:100BC0007047F8B5054605F13D0029684E694F6844
:100BD00042780024F3050AD5FB0508D56FF480732D
:100BE0004B61012429680B6843F400430B60B10595
:100BF00007D5FB0505D52B686FF4007144F002049E
:100C00005961710560D5FB055ED56B8D90F800C00C
:100C1000D5F830E0202A08BF002B6FF4806148D15E
:100C2000BCF1210F18BFBCF1290F05D0BCF1280F72
:100C300008BFBEF1210F3CD10278EB6ADFF898C201
:100C4000082B14BF202B282A16D1C5F82CC02A68DF
:100C5000536823F4E06353602A68516120222968B5
:100C60000B6823F480630B600021296302704170DC
:100C7000284600F077FC27E0212A17D1C5F82CC0C0
:100C80002A6320230370002242702868426822F4FD
:100C9000E0624260286841612868FFF735FB28461A
:100CA000FFF7C0FA284600F0CEFE0DE0286841614B
:100CB0000AE02B68102A18BF402A596144F0040446
:100CC00002D1286800F00BF9300507D5F90505D5E4
:100CD00029686FF4006044F00804486134B1286C5E
:100CE00004432C642846BDE8F2405AE0F1BD10B53B
:100CF00000F13D0300F148021C78916871B9006869
:100D00005168012905D11368DBB203619068801C2A
:100D100019E011680904090E016112E091680129C6
:100D200007D113680068DBB203619168491C9160C8
:100D300010BD916802292FD1222C06D10068FFF73F
:100D4000E9FA9068401C906010BD418D61B1212C82
:100D50000AD1416A03680A781A61416A4A1C4262F0
:100D6000418D4A1E428510BD418D002908BF212CAE
:100D700016D101684A6822F4E0624A6001680A6894
:100D800042F400720A600021016320221A70597037
:100D9000BDE8104000F0E3BBBDE81040FFF742BAE9
:100DA00010BD38B5044604F13D052878697810294E
:100DB00014BF4029222804D121680A6822F4006265
:100DC0000A6000F02801282903D10020206329703F
:100DD0000BE0226851680A0505D4602803D0202062
:100DE00028700021697000202063206841680A058E
:100DF00023D5416821F400614160606B0FF2E90185
:100E000090F82120012A09D04163606B00F0BAFDFF
:100E1000002825D000F058F8606B0BE0A06B416310
:100E2000A06B00F0AFFDD8B1206800F032F800F000
:100E30004BF8A06B416B884712E02A78602A0AD1F0
:100E4000202129700022226400F023F800F035F8F8
:100E500000F0FAFD04E000F01CF8204600F0E4FB8E
:100E6000206C10F00F0F01D000F021F82878216CD1
:100E70004A070DD528280BD100F016F80021216370
:100E80002020287069702046BDE8324000F06ABB1F
:100E900031BD41694A0605D50069616A0870606A1A
:100EA000421C6262704720850B48E06270472068F0
:100EB000416821F4E0614160704720680168490899
:100EC00049000160204670472068016849084900D0
:100ED00001602020287070470000FFFF3068016823
:100EE00041F40071016070477CB500210091192523
:100EF000416A304801F13D024FF47A761378046874
:100F0000B4FBF5F5B5FBF6F62320464300960098B2
:100F100038B10098401E00900C6820688505F6D412
:100F200003E0086C40F020000864486B08B100241E
:100F30008462886B08B1002484620868046824F421
:100F40008064046000204885486B08B10024446335
:100F5000886B08B10024446308680468640864006E
:100F600004601078602809D1202313700024547085
:100F70000C640846BDE8764000F066BD03F0280327
:100F8000282B0ED10868036843F00103036028236F
:100F90000868046844F480640460002008631370E7
:100FA00003E020201070002454700846BDE876400D
:100FB00000F03ABB0C000020384881B0016841F0D5
:100FC00001010160026802F001020092009942688A
:100FD00042F080524260406800F0805000900098DB
:100FE0002F48016821F0E06141F00071016001B01B
:100FF000704718B585B004461022002101A800F002
:1010000024FD2168274881422CD1244C216841F0DD
:1010100008012160C021206800F008000090122221
:1010200000982148019102920321049101A900F046
:1010300033FD606840F4001060600022606800F4D6
:10104000001000900E2100981F2000F037FE1F2096
:1010500000F051FE00220E21202000F02FFE202063
:1010600000F049FE06B010BD0068B0F1804F00D01E
:10107000704780B50D48016841F001010160002210
:10108000006800F001000090002100981C2000F092
:1010900015FEBDE802401C2000F02DBE18100240D5
:1010A0000400014000540040000C01401C100240AC
:1010B0002DE9F843040016D02078DFF86064C107FA
:1010C00013D5706800F00C00042807D0706800F099
:1010D0000C00082841D17068C1033ED530688103F7
:1010E00003D56068002800F064812078DFF83C7444
:1010F000810719D5706810F00C0F07D0706800F0E8
:101100000C00082861D17068C1035ED43068810783
:1011100003D52069012840F04C813168606921F0D5
:10112000F80141EAC00131602178080740F181806F
:10113000A069DFF8FC13002800F0A68001220A60F5
:1011400000F004FE0546706A810763D400F0FEFDDE
:10115000401B0228F7D903202EE16068B0F5803FDC
:1011600004D1306840F48030306014E008B9306851
:101170000AE0B0F5A02F306806D140F4802030603E
:10118000316841F4803105E020F48030306031680E
:1011900021F480213160606858B100F0D7FD054628
:1011A00030688103A1D400F0D1FD401B6528F7D33E
:1011B000D1E700F0CBFD05463068810395D500F0FE
:1011C000C5FD401B6528F7D3C5E72069A8B10121FB
:1011D000396000F0BBFD05463068810705D400F09A
:1011E000B5FD401B0228F7D9B5E73068616920F0EA
:1011F000F80040EAC100306096E7386000F0A6FDD4
:101200000546316888078FD500F0A0FD401B0228F5
:10121000F7D9A0E7DFF808030168C9084FF47A722C
:10122000B1FBF2F2009200BF0098411E002800912D
:10123000F9D1207841076ED5F0690025C10009D4A5
:10124000F06940F08050F0610125F06900F08050B5
:1012500000900098DFF8DC82D8F80000C10520D4A7
:10126000D8F8000040F48070C8F8000000F06EFD6F
:101270008146D8F80000C10513D400F067FDA0EB4B
:1012800009006528F5D366E7086000F05FFD0546B4
:10129000706A8107CDD500F059FD401B0228F7D9AF
:1012A00059E7E068012808D008B9306A09E0052844
:1012B000306A06D140F004003062306A40F001002C
:1012C00005E0400840003062306A20F004003062DF
:1012D00041F28938E06860B100F038FD8146306A3B
:1012E000810713D400F032FDA0EB09004045F6D38E
:1012F00031E700F02BFD8146306A810706D500F00A
:1013000025FDA0EB09004045F6D324E71DB1F069A7
:1013100020F08050F061E06900284CD0716801F045
:101320000C01082938D002282AD100F047F80546D8
:101330003068810105D500F009FD401B0228F7D96E
:1013400009E7206AB0F5803F05D17168A06821F4F3
:101350000031014371607268206A616A22F474127C
:1013600002430A437260012000F029F80446306805
:10137000810120D400F0EAFC001B0228F7D9EAE63C
:1013800000F01CF804463068810114D500F0DEFC42
:10139000001B0228F7D9DEE601280AD07068226A0D
:1013A00000F48031914202BF00F47010616A8842FB
:1013B00001D0012000E00020BDE8F2830020386663
:1013C00000F0C4BC2DE9F041040088464ED05A4ECE
:1013D00000F077F802D200F06FF847D120684F4D47
:1013E000810712D5400703D5696841F4E06169605F
:1013F0002078010703D5686840F460506860696828
:10140000A06821F0F001014369602178C80725D563
:101410006068012802D129688A0303E0022829684C
:1014200002D18A0102D421E08A071FD569688908A0
:1014300040EA8100686000F089FC074668686168DE
:1014400000F00C00B0EB810F08D000F07FFCC01B57
:1014500041F289318842F1D303202BE0306800F05B
:101460000700804504D200F027F801D0012021E0D8
:101470002078410705D56A68E06822F4E0620243FB
:101480006A602178080706D56968206921F46051EF
:1014900041EAC001696000F019F86A682749204BE9
:1014A000C2F30312895CC84018601F48006800F04E
:1014B00053FC0020BDE8F0813168C90848EAC10149
:1014C0003160306800F00700404570471C491548FE
:1014D0000A6802F00C03082B00D0704710B500BF5B
:1014E0001AA4C2F38343D203E35C08D509685843C6
:1014F0001AA3C1F340415A5CB0FBF2F010BD18468C
:101500001049484310BD06480D4A006813680E494B
:10151000C3F30222FFE7895CC84070470010024015
:101520000C00002000127A00080000200000424257
:10153000800442420070004000200240F42E000867
:101540000410024000093D00302F0008020304058A
:10155000060708090A0B0C0D0E0F10100102704748
:1015600070477047FEF733BF38B50129D64C31D1EB
:10157000082340222146FEF7E9FE2378062B0FD1EF
:101580006178D248012908BF002201D021B9012287
:101590004FF4004100F046FB4021204600F0FCFBE8
:1015A0002078CB4D04280AD1A078012808BF6078A4
:1015B00000D000B928704021204600F0EDFB2078D3
:1015C00005282FD1A078012808BF607800D018BB6B
:1015D000687021E0217801290AD104F1400104F169
:1015E00048020B6813600422082304F1480111E04B
:1015F00002290AD104F1440104F14C020B68136082
:101600000422082304F14C0104E003290AD1082331
:101610000122B049FEF788FE2046BDE83440402153
:1016200000F0BABB31BD7047FEF7D1BE2DE9F843DB
:1016300086B000F0CBFB00F071F968460021002273
:101640000023002480E81E00A348A44C0168A44D98
:101650009E4E41F0100101604FF48047026802F095
:10166000100204920499026842F0200202600368AA
:1016700003F0200304930499026842F0040202601C
:10168000036803F0040304930499026842F008021B
:1016900002600022006800F0080004904FF400513E
:1016A0000498204600F0BEFA00221021284600F0DF
:1016B000B9FA00224FF4304100F024F94FF4005100
:1016C00000F023F9204600F0E7F9082000210090FF
:1016D000019102912846694600F0DEF9102100913F
:1016E00001220192002102910322039269462846B9
:1016F00000F0D2F94FF4304100F007F9304600F025
:10170000CBF9784901910022029200976946304650
:1017100000F0C2F900220E21282000F0CFFA282084
:1017200000F0E9FA704D714871496860A9600020C5
:10173000E8602421A861E8612862686229616F611C
:10174000281DFEF7D3FC08B100F019F902A800210A
:1017500000220023002780E88E004720E865CDE9BD
:101760000012632068664FF0804180202867A965D9
:101770002A66AA6605F1580000F03AFB08B100F0AD
:10178000FEF84FF48050029002A905F1580000F0D5
:1017900087FB08B100F0F3F800970197694605F15F
:1017A000580000F055FC08B100F0E9F805F15800C8
:1017B00000F02BFB00F048FD281DFEF708FE08B1E5
:1017C00000F0DDF8202205F1C801281DFEF739FDE3
:1017D00001224FF4004100F095F801224FF400512E
:1017E00000F090F801224FF4805100F08BF8364E53
:1017F000DFF8009105F1A0070E21002000F006FDA2
:10180000082000F0F3FC00F06AFD4FF0000800F043
:1018100053F800F0B9FD297847F821007968386855
:1018200000F0E6FDB96800F0E3FDF96800F0E0FDC6
:10183000396900F0DDFD304900F04CFE30640220D3
:1018400000F0D4FC4B2000F0C3FE5E21002000F02D
:10185000DDFC082000F0CAFC00F041FD00F02CF88F
:101860002A7805EB820800F08FFDC8F8B400B9694A
:10187000786900F0BDFDF96900F0BAFD396A00F041
:10188000B7FD796A00F0B4FD1B4900F023FE7064D7
:10189000022000F0ABFC4B2000F09AFE4FF4005108
:1018A000204600F0C3F92878401C2870C0B20428F4
:1018B000A2DD002028709FE7CDE9028980210091F8
:1018C0000E4A0F4B00F021BDF8000020000C014033
:1018D000480100204A010020181002400010014079
:1018E00000080140000031101000002000540040AA
:1018F000A0860100000039400000A040FCA9F1D200
:101900004D620040304600F08DB9009101220192F5
:1019100000210291022203926946704700B58FB000
:10192000282105A800F038FA1421684600F034FA9E
:101930004FF480310022069107920D91012005900D
:10194000099002224FF4E0110C920E9105A8FFF7C6
:10195000AFFB08B172B6FEE7022101910F204FF4F0
:101960008061009000220391029204920221684655
:10197000FFF728FD08B172B6FEE70FB000BD72B6E2
:10198000FEE7704738B590F821200024022A00F1C4
:10199000340103D00420486001243BE0026813684E
:1019A00023F00E0313600268DFF8783015686D08C5
:1019B0006D00156002689A4208BF012222D0DFF84C
:1019C00068309A4208BF10221CD0DFF860309A427B
:1019D00008BF4FF4807215D0DFF854309A4208BF28
:1019E0004FF480520ED0DFF84C309A4208BF4FF4CB
:1019F000803207D0DFF840309A420CBF4FF480129B
:101A00004FF08072DFF834301A6000F005F8096892
:101A100001B18847204632BD012280F8212080F89C
:101A200020407047080002401C0002403000024085
:101A300044000240580002406C0002400400024092
:101A400090F8210070477047704710B50446104663
:101A50000A460146204600F0CFFD204610BD30B4B6
:101A6000002513E050F8042BD30744BFA9F101036C
:101A70009A18091F042942F8045BFAD213468C070E
:101A800044BF15809B1CC90748BF1D7050F8041B3C
:101A90000029E7D130BC70472DE9F8474FF0000E20
:101AA00000246B4A6B4BDFF8B0814FF00F09824680
:101AB0000CE017683840106006E055604D68ED0393
:101AC000F7D51068074317600EF1010E0F6837FA5B
:101AD0000EF000F09F80012000FA0EF63740B7426A
:101AE000F2D1486838B301281AD002281DD0032843
:101AF0002ED0112816D012281AD0584DA8421CBF3B
:101B0000574DA84217D0574DA8421CBF564DA8426A
:101B100011D0564DA8421CBF554DA8420BD018E01D
:101B2000CC6816E0CC68241D13E0CC68083410E0C3
:101B3000CC680C340DE0886808B9042409E0012859
:101B400019BF0824CAF814600824CAF8106000E01D
:101B50000024B7F5807F03D250464FEA8E0C05E093
:101B6000AEF108050AF104004FEA850C056809FA90
:101B70000CF6B54304FA0CF6354305604868C0001E
:101B8000A2D5D8F8000040F00100C8F80000D8F84D
:101B9000005005F0010500954FEA8E0500984FEAC8
:101BA0009E0053F8206005F00C0C09FA0CF526EAAB
:101BB0000505304EB24508BF00260ED02E4EB24568
:101BC00008BF012609D02D4EB24508BF022604D019
:101BD0002B4EB2450CBF0326042606FA0CF63543FD
:101BE00043F82050F8434D68ED0295684CBF3D43E3
:101BF000054095604D68AD02D5684CBF3D4305403A
:101C0000D5604D685668AD034CBF47EA060500EA4B
:101C1000060552E7BDE8F1878068084018BF01203B
:101C2000C0B2704702B9090401617047C26801EA95
:101C30000203914341EA034101617047114A13686D
:101C400003421CBF106000F065BD7047000000003B
:101C5000000401400800014018100240000011106B
:101C600000001210000021100000221000003110AE
:101C70000000321000080140000C0140001001403B
:101C800000140140140401400901020002D4294853
:101C900081547047284B02F00F021A4402F8041CCA
:101CA0007047264B19684FF6FF020002114000F4FE
:101CB000E0600843224908431860704770B51F4B25
:101CC0001C68C4F302230124C3F10705052D2EBFB0
:101CD0000F2504FA05F56D1E1E1D072E34BF0023C7
:101CE000DB1E2940994004FA03F3BDE870405B1EF7
:101CF0001A401143C8E7010007D4012200F01F0178
:101D0000104B8A40400943F82020704710B5401E10
:101D1000B0F1807F01D3012010BD0B4C60600F211A
:101D20004FF0FF30FFF7B0FF0021A16007202060D7
:101D3000002010BD00E400E018ED00E00CED00E034
:101D40000000FA0500E100E010E000E00148406812
:101D5000704700BF0000002038B50D4D0D4B2A78AC
:101D600004464FF47A711868B1FBF2F2B0FBF2F05E
:101D7000FFF7CCFF50B9102C08D2002221464FF0BB
:101D8000FF30FFF79BFFAC60002032BD012032BD69
:101D9000000000200C000020002200F0D3BC30B472
:101DA0000EE00268436802440830DC0744BFA9F132
:101DB0000104E31852F8045B43F8045B091FF9D1EE
:101DC00050F8041B0029ECD130BC704780B507489F
:101DD000016841F0100101600320FFF762FF0F204E
:101DE000FFF7BAFFFFF7E8F8002002BD002002402D
:101DF00038B5040001D1012032BD00F04BF818B90C
:101E000000F0ACF8FFF730F92DE090F83D10012913
:101E100001D001207047022180F83D100168CA6896
:101E200042F00102CA600068DFF86010884218BF03
:101E3000B0F1804F07D0DFF8581088421CBFDFF8A0
:101E40005C20904209D1816801F00701062908D081
:101E5000016841F00101016003E0026842F0010203
:101E600002600020704702206870211D206800F089
:101E700079F80120A872A870E87028716871A871BB
:101E8000E871287268726870002032BD002C014031
:101E90000004004004F13C056878704700080040E9
:101EA00070B5064606F13C0500242878012801D1CA
:101EB000022070BD0120287002226A70DFF8100134
:101EC00032689368034093600868020018BF1028C6
:101ED00030D0202818BF30282CD0402826D05028B9
:101EE00019D060281BD0702806D0B0F5805F27D0AD
:101EF000B0F5005F07D022E000F02BF83068816871
:101F000041F0770105E000F024F83068816841F481
:101F10008041816014E000F018F850210BE0CA689D
:101F20004968306800F06DF8602104E000F00DF8B9
:101F3000402100E00146306800F075F800E001241F
:101F40000120687000F00AF870BDCA6849683068FE
:101F500048E0CB684A68896830686CE000212970E5
:101F60002046704770B51B4E03681B4C1B4DB0429A
:101F700018BFB0F1804F03D0A84218BFA04209D1CA
:101F80004A6823F070031343B0421CBFB0F1804F86
:101F9000A84201D0A04203D1CA6823F4407313437E
:101FA0004A6923F0800313430360B0428B68C36225
:101FB0000A68826202D10969094A116001234361FA
:101FC0000169CA0703D5016949084900016170BD6B
:101FD0008800FFFF002C0140000800400004004082
:101FE000302C014010B5036A046A6408640004627E
:101FF00023F00A03846924F0F00444EA02148461A3
:1020000023E010B5036A046A24F01004046223F08C
:10201000A003846924F4704444EA0234846143EAEE
:102020000113036210BD826822F07002114341F077
:1020300007018160704710B5846824F47F44214310
:10204000114341EA0321816010BD1943016210BDB3
:1020500070B500F13C031A78012A01D1022070BD4D
:1020600001221A7002245C7005686E68AC680A6808
:1020700026F0700616436E6002680B48824218BF55
:10208000B2F1804F05D0094882421CBF084DAA42D8
:1020900004D1486824F080040443946001215970FD
:1020A0000020187070BD0000002C014000040040AA
:1020B00000080040AA48016841F4803101600268CC
:1020C00042F400320260016821F48021016002685C
:1020D00022F400220260016841F48011016002686C
:1020E00042F400120260016821F48001016002687C
:1020F00042F400020260016821F080710160026810
:1021000022F000720260016821F0806101600268C3
:1021100042F000620260016841F080510160026893
:1021200042F000520260016821F0804101600268C3
:1021300042F0004202608948016841F48051016028
:102140008848026822F480620260016821F400413C
:102150000160026822F400620260016821F08001DF
:102160000160026822F002020260016841F0010190
:102170000160026842F020020260016821F0100153
:102180000160026842F441720260016841F040015E
:102190000160704710B574490A6842F001020A6094
:1021A0004FF0804124238B6200F0FF02CA620023BB
:1021B0004B6201220A60002203E00B69DC07FCD5B8
:1021C000521C8242F9DB08694008400008610A6835
:1021D000520852000A6010BD10B500F02DF8634897
:1021E00001688A07FCD50471204610BDF4E780B56C
:1021F0005F48016841F480110160FF20FFF7ECFFA8
:102200005A480168CA07FCD5007902BD38B50446B2
:102210000D460520FFF7BEFFA40044F04004E0B2E5
:10222000FFF7E4FF0520FFF7B5FF2846FFF7DEFFC5
:10223000BDE832400520ADE704464D48016841F451
:10224000801101600520A5E710B53220FFF7A2FF3D
:10225000FFF730FF464C206840F4801020600120DA
:10226000FFF798FF0620FFF7C1FF3320FFF792FF2B
:1022700000F02FF85E210020FFF7C8FF00F02DF8D6
:10228000C0210120FFF7C2FF00F027F854210220EF
:10229000FFF7BCFF00F021F800210320FFF7B6FF95
:1022A00000F01BF800F019F800F013F8206840F473
:1022B000801020600820FFF799FF0120FFF76AFFD8
:1022C000206840F010002060216841F480112160F6
:1022D00010BD206840F48010206002205AE738B515
:1022E0001020FFF779FFFFF782FFFFF780FF04461A
:1022F000FFF77DFF40EA0425FFF779FF40EA05205C
:10230000010248BF40F07F4032BD2DE9F04DDDE9CC
:102310000A45089F1646984600F02EFA00F02EF85F
:1023200082468B46384600F027FA02460B46304676
:10233000414600F033FA52465B4600F053FB002260
:102340000C4B00F04FFB00220B4B00F027FA22460B
:102350002B46BDE8F04D00F017BC000018100240FD
:1023600000080140003001401C10024008300140CC
:102370001008014080842E410080444000224FF02C
:102380007A5300F02FBB000001F000428B1AA3F13A
:102390006051B1F5801F0ADBB1F17F6F1FD242EAB5
:1023A000C102C10071F1004142EB507070470B1542
:1023B000C3F10903212B10D2890241EA9051800216
:1023C0000128494141F0004121FA03F0C3F1200303
:1023D000994071F1004150417047100070476FF013
:1023E000000013EB103F5CBF000E42EAC050704784
:1023F00090EA010F40F1868481F00041431A4FF0CA
:1024000000423EBF5340C01AC91800BFD3095FEA5B
:10241000D05C13EB400F34BFB3EB410F40E07CEBDB
:10242000D1530CD342EA012122D8D1EB402009D369
:10243000400A28BF5FEA500140EBCC507047401A79
:1024400015D04002B0FA80F2521C9040400A4FEA88
:102450003C23B3EB026384BF00EB730007E040F45E
:1024600000001A16DB07C2F10102D0401843704782
:10247000182BFCDC31FA03F202FA03F3591A38BFC5
:1024800042F00102D2EB40203CBF4000ACF1010C15
:102490005FEACC5CC20572F100414CEB5020704702
:1024A00013EB400F0FD2C94209D0ACEBD153022B32
:1024B00003DB4902172BDDDD70479143401AC04210
:1024C000D5D10020704713EB410FD0D36FF000003F
:1024D0007047000010B5FF2313EAD0541DBF13EA64
:1024E000D1529C429A4239E0A41ADA0780EA0103E9
:1024F000134042EA012142EA0020421A3CBF641E16
:1025000001EB4202090AB2FBF1FE01FB1E2212029C
:10251000B2FBF1F001FB10226EF30F201202B2FBAE
:10252000F1FE4EEA00207F3406DDFE2C24DA53EA69
:10253000500050EBC45010BDD4F1020401FB1E2228
:1025400040F08071192C1DDC21FA04F0C4F1200444
:10255000A140114371F10042584110BD9C421ABF85
:1025600003EAD1529A420FE080EA010E0EF00043D6
:10257000400004D0490016D143F0FF4010BD49008F
:1025800008BFD343180010BD9C4205D1D21AF7D022
:1025900001F00041484010BD4A0212BF08464840C1
:1025A00000F0004010BD4AB90902B1FA81F2914031
:1025B00044B1A418C00140F000409EE7C90141F0B9
:1025C000004152420002B0FA80F4A040141B94E78C
:1025D00038B50446FFF7BAFB14F1010F054602D0E7
:1025E000044908780419FFF7B1FB401BA042FAD355
:1025F00031BD00BF0000002062F30F2262F31F42D2
:10260000401810F0030308D0C91A1FD3DB0748BFD6
:1026100000F8012D28BF20F8022D130030B4144615
:102620001546103928BF20E93C00FAD8490728BFD1
:1026300020E90C0048BF40F8042D890028BF20F88D
:10264000022D48BF00F8012D30BC7047C91818BFD3
:1026500000F8012DCB0728BF00F8012D70470000BE
:10266000FEE7FEE7FEE7FEE7FEE7704770477047CC
:1026700000F082BB70B52F4C21786378C8204143AD
:10268000FF225843FF2591FBF2F190FBF5F52A4814
:1026900000680269D307C9B2EDB230D5C268D3076A
:1026A0002DD56FF001020261A07840B36068234E1F
:1026B000CA1C401C8842606003D3904238BF00228D
:1026C00002D3904205D301224FF480513046FFF7E8
:1026D000A9FA6168E81CA94203D3814238BF0022ED
:1026E00002D3814205D301224FF400513046FFF757
:1026F00099FA6068C82802D300216160A17070BD9A
:102700000F48FDF781BE0E48FEF75BBA4FF48040DC
:10271000FFF794BAB0F5804F00D0704780B54FF402
:1027200080410648FFF778FA012802D001490120CC
:10273000887001BD4801002068000020000C0140A5
:102740001400002000B500BF1300964694461039CF
:1027500028BFA0E80C50FAD85FEA417C28BF0CC023
:1027600048BF40F8042BC90728BF20F8022B48BFF8
:1027700000F8012B00BD0000C11768B14840401AA5
:10278000B0FA80F29040D21CC907C2F5846241EAD7
:10279000025202EBD021400570470000F0B540F234
:1027A000FF7581EA030C0CF0004C15EA11541DBFB3
:1027B00015EA1357AC42AF42E5E0BC41C1F3130147
:1027C000C3F31303801A994143F4801304D2641EA7
:1027D0004000494180185941C90241EA5051B1FBBA
:1027E000F3F603FB1611A2FB0675D7EBC020A94137
:1027F00002D2761E80185941C90241EA5051B1FBFC
:10280000F3FE03FB1E11A2FB0E75D7EBC020A941FE
:1028100003D2AEF1010E80185941890241EA90516C
:10282000760546EA8E2EB1FBF3F603FB1611A2FBEA
:102830000675D7EB8020A94102D2761E8018594137
:10284000C90241EA50514EEA060EB1FBF3F603FB12
:102850001611A2FB0675D7EBC020A94102D2761E45
:1028600080185941C90241EA5051B1FBF3F703FB0B
:102870001711A2FB0735D3EBC020A94167F1000770
:102880000CBF004247F0010766F3D5274FEA1E311F
:10289000B80814F5806412DDBD0775F1004250EBF5
:1028A0000E5051EB045111F5801F5CBF41EA0C0141
:1028B000F0BD4CF07F6141F0E0410020F0BDBD076C
:1028C0006D0840EA0E5041F48011D4F10104B4F1D6
:1028D00020060ADAC4F120060200E04001FA06F3FD
:1028E000E1401843B24015430EE0342C13DCC6F12E
:1028F000200445EA40056D0820FA06F2154321FA46
:1029000006F0A1400D43002175F1004250F1000096
:1029100051EB0C01F0BD00205FEA0C01F0BDCFB916
:1029200092185B41B3FA83F704BFB2FA82F6BF197B
:102930000B3FB7F120062FBF02FA06F3BB40C7F1E9
:10294000200622FA06F638BF3343BA401CB1E41918
:10295000641E33E77F4231F00041B1FA81F404BFD5
:10296000B0FA80F6A4190B3CB4F120062FBF00FA90
:1029700006F1A140C4F1200620FA06F638BF314323
:10298000A0403C1B1AE7AC421ABF05EA1357AF42FE
:1029900012E050EA41061CBF52EA4306BFE750EA84
:1029A0004107304661461CBF41EA0551F0BD52EA7D
:1029B000430C08BFC143F0BD00204FF4001616EBD6
:1029C000410F98BF16EB430F08BF16EB410F24BF12
:1029D000C14305E016EB430F0CBF61464CEA0551BD
:1029E000F0BD0000B0B581EA030C0CF0004C40F2E1
:1029F000FF7515EA11541DBF15EA1357AC42AF42DB
:102A000039E0E41923EA455343F48013C90241F045
:102A1000004141EA505EC7021100A7FB02020028F4
:102A20004FF00000EEFB01204FF00001E3FB072117
:102A300018BF42F00102401800214941E3FB0E019A
:102A4000A4F580640F0302D252004041494154F181
:102A500001046CDD470872F1004250F1000051EBB7
:102A60000451A1F580115CBF41EA0C01B0BD4CEAF4
:102A700005510020B0BD05EA1357AC4214BFAF4268
:102A800041E050EA410E1CBF52EA430E02E06146AB
:102A90000020B0BD24423C441BD15FEA070EF6D0B3
:102AA000090302BF01460020AEF1140EB1FA81F70E
:102AB000AEEB070401FA07FE0C37C7F1200100FA5C
:102AC00007F7C8404EEA000E23EA455343F480134B
:102AD000A2E733F00043B3FA83F704BFB2FA82FEF1
:102AE00077440B3FE41BB7F1200E2FBF02FA0EF321
:102AF000BB40C7F1200E22FA0EFE38BF43EA0E0398
:102B0000BA40641C82E750EA410E14BF52EA430EF9
:102B10006FF000014FF4001717EB430F8ABF1946FF
:102B200017EB410FB5E74CEA05510020B0BDD4F1D9
:102B30000104B4F120070FDAC4F12007520828BFBE
:102B400042F0010210FA07F501FA07F7E1BF2A4344
:102B5000E0403843E1400FE0352C98DCC7F1200419
:102B600052EA400220FA07F218BF42F0010231FA9D
:102B700007F0A1400A43002172F1004250F1000029
:102B800051EB0C01B0BD000070B44FF0004591EA6C
:102B9000030F40F1F9806B40841A71EB030604D2F5
:102BA0006E40001BB141121973414FF4001C1CEB25
:102BB000410F34BF7CEB430683E00C0DA4EB1356AE
:102BC000362E00F37C80012E45EAC32341DC43EA24
:102BD000525312BFD20292025B08240545EAC1217A
:102BE00041EA5051D2EBC020994125D407D1B0FA27
:102BF00080F610FA06F162D00020203608E0B1FA23
:102C000081F6B140C6F1200220FA02F21143B04031
:102C10004FEAF474B4EB465434F001064FEA7404FE
:102C20000AD8D6F50016760D04F00044F04061FA9B
:102C300006F25040F1404840C00A40EA415021F0BD
:102C4000004128BF5FEA500550F1000044EBD1215C
:102C500035E0DB0A45EAC121C90AB6F120050EDDDF
:102C600042EA0242120CC5F1200603FA06F6EB40D6
:102C700042EA06056D42984161F100010DE062FAF9
:102C800006F5F240554063FA06FC82EA0C02F34076
:102C90005A406D42904161EB030111F4801F05D150
:102CA000641E620502D06D004041494121F480114B
:102CB000430875F1004350F1000041EB045170BC32
:102CC00070471CEB410F15D223F0004352EA430634
:102CD0000BD04FEA4C0CBCEB410F04D80C0D661E18
:102CE000342EB7DDEBE7801A994150EA410608BF60
:102CF0000021E4E708BF1CEB430F28BF6FF0000181
:102D0000DDE70000421A3CBF801A89184FF0004CE2
:102D1000C0F3C752FF2A24D0C1F3C75313B3D21A4A
:102D2000D2F1190327DD4CEA01214CFA03F321EA21
:102D30000303D140C20D4CEA0020401834BF20EA02
:102D40000C004CEA5000D20553EA006373EB0C0C04
:102D500052EB1020420012F1807F38BF7047C00D47
:102D6000C0057047490212BF9A4200EB5120F8E7B4
:102D7000D2F11703D9D5704702494A6808788218FA
:102D80004A60704700000020841A71EB030603D2EA
:102D9000001BB141121973414FF4001C1CEB410F91
:102DA00034BF7CEB430442E00C0DA4EB1356352EEC
:102DB0004FDC45EAC323DB0A45EAC121C912B6F15B
:102DC00020050DDD63FA05F6EB4086EA03051242A5
:102DD00018BF45F00105C01851F100010CD213E0F5
:102DE00062FA06F5F2405540F3415A40B340F340D1
:102DF0005A408018594107D349085FEA30005FEA1A
:102E0000350528BF45F0010501F58011420875F12F
:102E1000004250F1000041EB04514E0016F5001F36
:102E200070BC38BF70470020090D090570471CEBC6
:102E3000410F10D252EA43060BD0BCEB410F05D82C
:102E40000C0DAB43661E342EB6DD02E0AB4380189A
:102E5000594170BC704770BC7047000010B50749FD
:102E600079441831064C7C44163404E00A68081D85
:102E7000114488470146A142F8D110BD0800000066
:102E800028000000DBEBFFFF4001000010000020E5
:102E9000000000000BEFFFFF1000000078000000B2
:102EA000000000200000000000F00DF8002801D014
:102EB000FFF7D4FFAFF300800020AFF30080FEF7F0
:102EC000B5FB00F002F80120704700F001B80000E7
:102ED0000746384600F002F8FBE7000080B5AFF384
:102EE0000080024A11001820ABBEFBE7260002005A
:102EF0007047000000000000000000000102030411
:102F0000060708090148804701480047F12E0008DC
:102F1000252F000801000000000000001000000044
:102F200000127A00AFF30080AFF30080FFF7BCFF20
:102F30000000000001020304FFF7FEBFFFF7FEBF21
:102F4000FFF7FEBFFFF7FEBFFFF7FEBFFFF7FEBFB5
:102F5000FFF7FEBFFFF7FEBFFFF7FEBFFFF7FEBFA5
:102F6000FFF7FEBFFFF7FEBFFFF7FEBFFFF7FEBF95
:102F7000FFF7FEBFFFF7FEBFFFF7FEBFFFF7FEBF85
:102F8000FFF7FEBFFFF7FEBFFFF7FEBFFFF7FEBF75
:102F9000FFF7FEBFFFF7FEBFFFF7FEBFFFF7FEBF65
:102FA000FFF7FEBFFFF7FEBFFFF7FEBFFFF7FEBF55
:102FB000FFF7FEBFFFF7FEBFFFF7FEBFFFF7FEBF45
:102FC000FFF7FEBFFFF7FEBFFFF7FEBFFFF7FEBF35
:042FD000FFF7FEBF4A
:0400000508002F259B
:00000001FF
